:020000040800F2
:10000000D8460020990100084B31000865250008FA
:1000100049310008290A0008B53D00080000000029
:1000200000000000000000000000000001010008C6
:100030007F0C00080000000045010008113A00088C
:10004000B3010008B3010008B3010008B3010008C0
:10005000B3010008B3010008B3010008B3010008B0
:10006000B3010008B3010008B3010008B3010008A0
:10007000B3010008B3010008B3010008B301000890
:10008000B3010008B3010008B3010008B301000880
:10009000B3010008B3010008B3010008B301000870
:1000A000B3010008B3010008B3010008B301000860
:1000B000B3010008B30100089D3A0008B30100082D
:1000C000B3010008B3010008B3010008B301000840
:1000D000B30100089D3D0008A93D0008B3010008D8
:1000E000B3010008B3010008B3010008DFF80CD029
:1000F00000F062FB0048004711490008D846002084
:10010000224B19680868B0E8F00F80F30988BFF344
:100110006F8F4FF0000080F311884EF00D0E704786
:100120000000000006480068006880F3088862B696
:1001300061B6BFF34F8FBFF36F8F00DF00BF00BF0B
:1001400008ED00E0EFF30980BFF36F8F0F4B1A68E3
:1001500020E9F00F106008B54FF0500080F31188CF
:10016000BFF34F8FBFF36F8F05F008FE4FF0000015
:1001700080F31188BDE8084019680868B0E8F00FFE
:1001800080F30988BFF36F8F704700BF2C000020F9
:10019000EFF3058070470000064880470648004797
:1001A000FEE7FEE7FEE7FEE7FEE7FEE7FEE7FEE727
:1001B000FEE7FEE79B3A0008ED0000082DE9F05F3E
:1001C0000546002092469B468846064681464024C6
:1001D0001BE0284641464746224600F020F8534699
:1001E0005A46C01A914110D311461846224600F0D3
:1001F000DDF92D1A67EB01084F4622460120002148
:1002000000F0D4F917EB00094E41201EA4F10104BF
:10021000DFDC484631462A464346BDE8F09F202AA7
:1002200004DB203A21FA02F00021704721FA02F3A0
:10023000D040C2F12002914008431946704740EA7D
:1002400001039B0703D009E008C9121F08C0042A54
:10025000FAD203E011F8013B00F8013B521EF9D23B
:100260007047D2B201E000F8012B491EFBD2704763
:100270000022F6E710B513460A4604461946FFF772
:10028000F0FF204610BD421E12F8013F002BFBD1AB
:1002900011F8013B02F8013B002BF9D1704730B552
:1002A00005462A460B4612F8010B13F8014B08B11C
:1002B000A042F8D01CB1002802D06D1CF1E72846FE
:1002C00030BDCAB2401E10F8011F8A4202D0002978
:1002D000F9D100207047421C10F8011B0029FBD106
:1002E000801A704710B5044600E0401C0378002BCC
:1002F000FBD100E0401C521E04D311F8013B0370F7
:10030000002BF7D100210170204610BD034611F8E3
:10031000012B00F8012B002AF9D1184670472DE96E
:10032000FE4F804681EA0300C00F0C46009021F08A
:10033000004123F00045B8EB0200A94105D2404638
:10034000214690461C460B46024623F000401043CF
:1003500047D0270DC7F30A00C3F30A510290401A91
:10036000019040286BDAC3F3130040F4801B00981F
:10037000924620B10023D2EB030A63EB0B0B0198EA
:100380005946C0F14002504600F010F906460D46AD
:1003900050465946019A00F018F910EB08006141E7
:1003A000002487EA115284EAE7731A4340D0009A86
:1003B00062B3019A012A4FEA075215DC001B61EB78
:1003C00002014FF0004202EA0752CDE90042001C50
:1003D00041F5801132462B4600F018F903B0BDE814
:1003E000F08F40462146F9E7001B61EB0201001C3B
:1003F00041F5801300185B412018A2F5001747EB68
:10040000030140EAD570B6196D4111E06D084FEA5D
:10041000360645EAC0754FEA0752001B61EB020140
:10042000001C41F5801149084FEA30000019514184
:1004300032462B4603B0BDE8F04F00F0D8B8009824
:10044000012240000023D0EB020263EBE07300982E
:1004500021464FEAE074B8EB000061EB0401E9E7E4
:1004600083F000435BE781F0004158E72DE9FE4F40
:1004700081EA030404F0004421F0004100944FF0AD
:10048000000B23F0004350EA01045ED052EA03045B
:100490005BD0C3F30A54C1F30A552C44A4F2F334DD
:1004A0000194A0FB0254C1F3130141F48011C3F382
:1004B000130343F4801301FB024400FB034E840A40
:1004C000970A44EA815447EA8357A4FB07680295D8
:1004D0008D0A05FB07854FEA932C04FB0C54270576
:1004E000029D4FEA065847EA1637B5EB08056EEB52
:1004F000070C870E920E47EA811742EA8312A7FB88
:100500000201B6EB0B0164EB00042B0D43EA0C3344
:100510005E1844EB1C50DA465146E7FB0201C5F376
:1005200013044FEA0B3343EA14534FEA0432019C9D
:1005300043EA0603A4F10C040294009CCDE900B444
:1005400000F064F803B0BDE8F08F00200146F9E741
:1005500030B5041E71F1000404DB4FF0004440424A
:1005600064EB0101141E73F1000405DB1C464FF01F
:100570000043524263EB0403994208BF904230BDEE
:1005800030B50B46014600202022012409E021FA63
:1005900002F59D4205D303FA02F5491B04FA02F560
:1005A0002844151EA2F10102F1DC30BD202A04DB33
:1005B000203A00FA02F1002070479140C2F1200376
:1005C00020FA03F3194390407047202A06DBCB172B
:1005D000203A41FA02F043EAE07306E041FA02F3FE
:1005E000D040C2F12002914008431946704710B52F
:1005F000141E73F1000408DA401C41F10001921846
:100600005B411A4301D120F0010010BD2DE9F04DEE
:1006100092469B4611B1B1FA81F202E0B0FA80F243
:1006200020329046FFF7C2FF04460F4640EA0A0018
:1006300041EA0B0153465A46084313D0114653EA88
:10064000010019D0C8F140025046FFF7E8FD054609
:100650000E46504659464246FFF7A8FF084305D0CC
:10066000012004E020463946BDE8F08D0020054316
:1006700046EAE0762C4337430A986305E40AA0EB88
:1006800008000022FD0A44EA47540A3002D500203F
:100690000146E9E7010510196941DDE9084500193E
:1006A0006941BDE8F04DA2E72DE9F04D81EA030470
:1006B00004F0004B21F0004514464FF0000A23F0EF
:1006C000004150EA050220D054EA01021DD0C5F3D2
:1006D0000A570246C5F31303C1F31300C1F30A56C8
:1006E00040F4801543F48013A7EB0608101BD64690
:1006F00008F2FD3873EB050002D308F1010801E0B0
:1007000092185B41B8F1000F03DA00200146BDE802
:10071000F08D00204FF48011064684460EE0171B32
:1007200073EB050705D3121B63EB050306434CEA85
:10073000010C49084FEA300092185B4150EA01076A
:10074000EDD152EA030012D082EA040083EA0501E7
:10075000084305D0101BAB4106D20122002306E05E
:1007600000224FF0004302E06FF0010253101AEB39
:1007700006004CEB085110EB0A0041EB0B01BDE801
:10078000F04DFFF734BFC1F30A52C1F3130140F239
:10079000FF3341F480119A4202DA0020014670478B
:1007A00040F233439A42A2F2334202DC5242FFF754
:1007B00036BDFFF7FBBE0000064C074D06E0E068C3
:1007C00040F0010394E8070098471034AC42F6D398
:1007D000FFF790FC30770008507700082DE9F047CC
:1007E000894600210D460C466FF02B0CDFF820A146
:1007F000089E37E0002701E0491C7F1CB14204D26B
:1008000013F80180B8F1200FF6D0B1422CD0A6EB3E
:100810000108B8F1020F04D313F80180B8F10D0FED
:1008200002D013F8018003E003EB010898F801807F
:10083000B8F10A0F15D067B95F5C3D2F0CD07F2F40
:1008400007D800BF1AF807707F2F02D0402F07D2B9
:1008500034B16046BDE8F087641C022CF9D8F1E79A
:100860006D1C491CB142C5D3A5B1EE0806EB460686
:10087000770005F0070505EB4506072505EB46055E
:1008800007EBD5052C1B08B1A14505D26FF0290057
:100890001460DFE7002038E0032600252F460446D9
:1008A00030E000BF93F800C0BCF10D0F28D0BCF1C0
:1008B0000A0F25D0BCF1200F22D01AF80CC0BCF1D1
:1008C000400F0AD04FF0000865F39F1C7F1CA6EB79
:1008D00008066546042F03D012E04FF00108F3E745
:1008E00000276EB14FEA154C04F801CB012E07D951
:1008F0004FEA152C04F801CB022E01D904F8015B54
:10090000491E5B1C0029CDD1201A10600020A1E7F0
:100910001A7600082DE9F04F0025099EAB46AEB1CE
:100920000327B6FBF7FCB6FBF7F407FB1C6CBCF126
:10093000000F01D04FF0010C64446FF0290CB4F1AA
:10094000804F06D34FF0FF3010600FE0C2F800B0C8
:1009500064E0A400641CA14207D330B1B6FBF7F1F8
:1009600001EB410A04462F492AE014606046BDE8C5
:10097000F08F00BF13F801CBED1C13F8019B4FEA79
:100980009C084FEA0C1C0CEB291C13F8017B11F896
:1009900008800CF03F0C04F8018B11F80CC004F82F
:1009A00001CB4FEA890C0CEBA71C0CF03F0C07F0B5
:1009B0003F0711F80CC004F802CBCF5D04F8017CAE
:1009C0005545D7D3B54224D213F801CB3D276D1C32
:1009D000B54201D21B7801E04FF000034FEA9C05BD
:1009E0004D5D04F8015B4FEA0C1505EB231505F08E
:1009F0003F054D5D04F8015B07D24FF03C0505EA69
:100A00008303C95C04F8011B01E004F8017B04F8CE
:100A1000017BA4EB0000106084F800B04FF00000F0
:100A2000A5E70000DA750008FEE7000010B500F049
:100A300093F919A003F0C4F902F088FB00211DA26C
:100A4000084602F098FB4FF4FA7402E0204603F0E7
:100A5000ADFF1EA11FA000F049FA0028F6D129A081
:100A600003F0AEF900212FA2084602F084FB02F049
:100A70006DFB002133A2084602F07DFB02E0204618
:100A800003F094FF02F09AFD0028F8D102F046FD31
:100A9000BDE8104000F0F4B8436F6E6E65637420DB
:100AA0004D51545473205365727665722E2E2E0D5F
:100AB0000A000000436F6E6E656374204D515454FC
:100AC00073205365727665722E2E2E00434F4E4E64
:100AD0004543540041542B43495053544152543DD3
:100AE00022544350222C226D717474732E686563F6
:100AF0006C6F7564732E636F6D222C313838330D33
:100B00000A000000436F6E6E656374204D515454AB
:100B100073205365727665722053756363657373D2
:100B20000D0A0000436F6E6E656374204D5154547E
:100B300073205365727665722053756363657373B2
:100B400000000000446576696365206C6F67696E1C
:100B50002E2E2E0010B50221034800F00DFC0128B6
:100B600000D0002010BD000000080140044B08B177
:100B7000012200E000220221184600F002BC000021
:100B8000000801402DE9F05F82468B460020FFF708
:100B9000EDFF142003F00AFF012202211C4800F09F
:100BA000F0FB3C2004F034FEFFF7D4FF4FF0FF3998
:100BB00058BB4FF47A742146012000F04EF820BB58
:100BC0002146002000F049F8F8B900F023F8C5B23A
:100BD00000F020F800F0FF0800F01CF8C4B200F0AC
:100BE00019F8C7B200F016F8C6B20120FFF7BEFF31
:100BF00005EB080020443844B04206D1CAF8005042
:100C00000020CBF80040BDE8F09F4846FBE700001D
:100C1000000801402DE9F04100242546671E4FF4ED
:100C20007A763146012000F018F870B9282004F0D7
:100C3000EFFD6400FFF78EFF012801D144F00104AD
:100C40003146002000F009F810B13846BDE8F081C7
:100C50006D1C082DE5DB2046F8E770B50C4605460F
:100C600008E0FFF777FFA84201D1002070BD012006
:100C700004F0CEFD641EF4D24FF0FF3070BD70471B
:100C800010B502F063FA00210122084602F0D0FA02
:100C900002220021122002F0CBFA00221146242069
:100CA00002F0C6FA032200215A2002F0C1FA0422FF
:100CB0000321002002F0BCFA05220321122002F0D9
:100CC000B7FA00220321242002F0B2FA0AA203217B
:100CD0000C2002F050FA06221146002002F0A8FA79
:100CE00007220621122002F0A3FA00220621BDE805
:100CF0001040242002F09CBA2500000010B54FF4EB
:100D000000710348FFF7B4FA02490020488010BD83
:100D1000D8380020B000002010B5044600F02EF9AD
:100D200058B90AA10B48FFF7BAFA30B13A21FFF7D8
:100D3000C8FA002800D0401C10BD052003F036FE84
:100D40002046641EA4B2E9D210BD00004950442CD4
:100D500000000000D838002010B502F0F7F9FFF7C6
:100D6000CDFF2CA003F02CF800212CA2084602F0A5
:100D700002FA4FF4FA7402E0204603F017FE29A1AC
:100D800029A000F0B3F80028F6D129A003F018F844
:100D90002AA20221002002F0EEF902E0204603F030
:100DA00005FE20A128A000F0A1F80028F6D12AA075
:100DB00003F006F82CA20421002002F0DCF902E086
:100DC000204603F0F3FD17A12BA000F08FF80028B8
:100DD000F6D12DA002F0F4FF2EA20621002002F091
:100DE000CAF902E0204603F0E1FD2DA12EA000F09B
:100DF0007DF80028F6D133A002F0E2FF02F0A6F958
:100E0000002136A2084602F0B6F92046BDE810409F
:100E100003F0CCBD312E2041540D0A00312E415437
:100E20002E2E2E004F4B000041540D0A00000000F2
:100E3000322E2043574D4F44450D0A00322E435762
:100E40004D4F44452E2E2E0041542B43574D4F44B9
:100E5000453D310D0A000000332E2041542B4357ED
:100E6000444843500D0A0000332E41542B4357444D
:100E70004843502E2E2E000041542B4357444843E4
:100E8000503D312C310D0A00342E2043574A415039
:100E90000D0A0000342E43574A41502E2E2E0000DA
:100EA000474F54204950000041542B43574A41506A
:100EB0003D226D6A222C22313233343536373839AF
:100EC000220D0A00352E204553503832363620493F
:100ED0006E6974204F4B0D0A0000000045535038D6
:100EE00032363620496E6974204F4B0070B50E467D
:100EF0000546C824FFF7EFF982B229460B4802F0F5
:100F00005AFF0EE000F03AF840B931460848FFF7C2
:100F1000C6F918B1FFF7F2FE002070BD0A2003F0F9
:100F200045FD641EE4B2EDD2012070BD741B0020AB
:100F3000D838002030B589B00C460546FFF7DEFEF4
:100F4000224608A1684602F063FF0AA16846FFF73F
:100F5000CDFF002804D122462946074802F02BFF86
:100F600009B030BD41542B43495053454E443D25B3
:100F7000640D0A003E000000741B002006484188F2
:100F800031B18288914205D10021418008467047E5
:100F9000012070478180FBE7B000002072B6FEE7B9
:100FA0001CB50E4E0E4F0F4C4FF0FF352B46002256
:100FB0000321306803F07AFD800709D52B46002213
:100FC0006946386803F0ECFD019820600098606085
:100FD00002F098FCFFF792FEE8E700001400002002
:100FE00010000020B80000201CB50E4D0E4E4FF032
:100FF000FF34234600220321286803F057FD8007B1
:10100000F7D5234600226946306803F0C9FD18B1C0
:1010100006A002F0D5FEECE7DDE9001002F0CEFC00
:10102000E7E70000140000201000002064697370DE
:101030006C6179206572726F720000001CB5164FEA
:10104000DFF8588000266D464FF0FF394FF4967A4E
:1010500003240096019606E0291D6846FFF792FDDD
:10106000642003F0B1FC641E14F0FF04F4D14B467D
:1010700000226946386803F00BFE30B108A002F088
:101080009FFE504603F0A0FCE2E70221D8F80000E2
:1010900003F0D6FCF5E7000010000020140000204B
:1010A0007075742064617461206572726F720A00D9
:1010B000FFF7BCFC03F02CFE10B590F821100022C5
:1010C000022905D00421816380F82020012010BD71
:1010D00001680B6823F00E030B6001680B6823F0B6
:1010E00001030B6090F84030C46B012101FA03F357
:1010F000636080F8211080F82020104610BD0000A9
:1011000010B590F821100024022903D00421816336
:1011100001243DE001680A6822F00E020A600168BD
:101120000A6822F001020A601A4A0168914201D15C
:10113000012121E0174A1432914201D110211BE014
:10114000144A2832914201D1891515E0114A3C32E6
:10115000914201D189140FE00E4A5032914202D1DE
:101160004FF4803108E00B4A6432914202D14FF4CF
:10117000801101E04FF08071064A083A5160012168
:1011800080F82110002180F82010416B01B18847C0
:10119000204610BD080002402DE9F84FDFF8B89155
:1011A0000024A9F1040B23460F2709F1040AABF12F
:1011B000040EC9E00125A5402A40AA427DD1674E10
:1011C000D1F804C0ACEB0608B44532D014DCBCF155
:1011D000030F3AD009DCBCF1000F2AD0BCF1010F9B
:1011E0001CD0BCF1020F31D11DE0BCF1110F17D0A2
:1011F000BCF1120F2AD119E0B8F5881F19D006DC0E
:10120000B8F5803F15D0B8F5801F1FD111E0B8F5B3
:10121000001F0ED0B8F5041F18D10AE0CB6815E006
:10122000CB681B1D12E0CB6808330FE0CB680C3392
:101230000CE08B682BB1012B4FF0080303D0456104
:1012400004E0042302E0056100E00023FF2A01D846
:10125000064601E000F104064FEA840501D9A5F134
:101260002005D6F8008007FA05FC28EA0C0803FAE6
:1012700005F548EA0508C6F800804D68ED0062D51E
:10128000374DAE6946F00106AE61AD6924F0030644
:1012900005F001050095334D06EB050CDCF8085010
:1012A000A607360F07FA06F825EA0805DFF8B88022
:1012B000404503D14FF0000817E044E0DFF8AC8070
:1012C000404502D14FF001080FE0DFF8A48040450F
:1012D00002D14FF0020808E0DFF89880404502D1C3
:1012E0004FF0030801E04FF0040808FA06F848EA56
:1012F0000508CCF808804D68D9F80060ED024D462D
:1013000001D5164300E096432E604D68DAF8006080
:10131000AD02554601D5164300E096432E604D6858
:10132000DBF80060AD035D4601D5164300E096434F
:101330002E604D68DEF80060ED03754601D516435A
:1013400000E096432E60641C0D682A46E5407FF459
:1013500031AFBDE8F88F0000080401400000111013
:10136000001002400000014000080140000C014054
:1013700000100140001401408068084000D00120A6
:1013800070470AB1016170470904FBE701488068B2
:10139000704700001C00002070B5040025D094F8B0
:1013A0003D00002520B984F83C50204600F0E6F9C5
:1013B000242084F83D002068016821F001010160CB
:1013C0002068016841F4004101602068016821F44F
:1013D0000041016000F080FB4D4A6168914201D8F4
:1013E0004C4900E04C49884201D2012070BD4B4974
:1013F0002368B0FBF1F15E6826F03F060E435E60A5
:101400006368934206D94FF4967359434FF47A7345
:10141000B1FBF3F12368491C1E6A26F03F063143F5
:1014200019626168914210D84900401EB0FBF1F288
:10143000521CC2F30B02042A01D2042022E0B0FBAA
:10144000F1F0401CC0F30B001CE0A268F2B301EB0A
:10145000C10303EB0116431EB3FBF6F35B1C43F41D
:1014600080431B0549D092B301EBC10202EB01118D
:10147000401EB0FBF1F0401CC0F30B0040F4804074
:1014800040F400402168CA694CF6FF739A43104348
:10149000C861D4E9071001432068026822F0C00245
:1014A00011430160D4E9030101432068826848F2D6
:1014B000FF339A4311438160D4E905010843216851
:1014C000CA6822F0FF021043C86001E00EE016E097
:1014D0002068016841F0010101602564202084F842
:1014E0003D00256384F83E50002070BD01EB4106AD
:1014F000431EB3FBF6F35B1CB3E70120C2E701EB2D
:101500004101401EB0FBF1F0401CC0F30B00B7E7F7
:10151000A086010080841E0000093D0040420F00AB
:101520002DE9F84F1F4690468A460446DDF828907C
:10153000FFF72CFF054694F83D0020287FD11923A2
:10154000012240492046009501F0F2F8002876D1AA
:1015500094F83C00012872D0012084F83C002068F7
:101560000168C90703D1016841F0010101602068E9
:10157000016821F400610160212084F83D00102001
:1015800084F83E0000262664C4F824806785608DB8
:1015900020852D48E0622B464A465146204600F001
:1015A000F9FF90B9206841698069009036E02A46C9
:1015B0004946204601F062F950B1206C042804D15C
:1015C0002068016841F4007101600120BDE8F88FD6
:1015D000606A216800780861606A401C6062618D01
:1015E000491E6185218D491E89B221852268536972
:1015F000DB435B070BD451B100781061606A401C7B
:101600006062608D401E6085208D401E20852A46C8
:101610004946204601F060F80028CED1208D0028F0
:10162000C5D154F83D0B016841F4007101602020E0
:1016300004F81E09E67766770020C7E7FFE7022077
:10164000C4E70000020010000000FFFF2DE9FF4F7B
:1016500083B09A46DDE9119793460446DDF8408051
:10166000FFF794FE054694F83D0020287FD119230A
:10167000012240492046009501F05AF8002876D111
:1016800094F83C00012872D0012084F83C002068C6
:101690000168C90703D1016841F0010101602068B8
:1016A000016821F400610160212084F83D004020A0
:1016B00084F83E0000262664C4F82480A4F82A900A
:1016C000608D20852C48E062CDE9007553465A466E
:1016D0002046049900F0ACFF70B930E02A46394644
:1016E000204601F0CBF858B1206C042804D12068C2
:1016F000016841F400710160012007B0BDE8F08F7E
:10170000606A216800780861606A401C6062218D0F
:10171000491E89B22185628D521E628522685369F5
:10172000DB435B070BD469B100781061606A401C31
:101730006062208D401E2085608D401E6085208D5A
:101740000028CBD12A463946204600F0C5FF0028A4
:10175000CAD154F83D0B016841F4007101602020AA
:1017600004F81E09E67766770020C6E7FFE7022047
:10177000C3E70000020010000000FFFF10B586B0B4
:101780000021009101910291039100680F49884264
:101790001AD10F4CA06940F00800A061A069694609
:1017A00000F008000490C020009012200190032057
:1017B00003900848FFF7F0FCE06940F40010E06196
:1017C000E06900F40010049006B010BD0054004021
:1017D00000100240000C0140024881680278114468
:1017E000816070471C000020074810B5016841F077
:1017F00010010160032000F0A7F80F2000F006F8A8
:1018000000F050F8002010BD0020024030B5054621
:101810001F4887B0C16941F00401C161C06906A9D0
:1018200000F00400009001A800F036F90498B0B16F
:1018300000F052F940001749174AB0FBF1F1174880
:10184000491E0260416040F2E7320021C0E90321F5
:101850008160816100F018FB040003D015E000F006
:101860003BF9E8E70D4800F03DFB04000DD11E20D8
:1018700000F03CF8102D07D2002229461E2000F06F
:1018800043F80748056000E0012407B0204630BD5A
:101890000010024040420F0000080040BC1B002026
:1018A000200000200F4808B5816941F001018161E5
:1018B000816901F001010091C16941F08051C1616C
:1018C000C069002200F0805000900F21901E00F0AF
:1018D0001BF80548416821F0E06141F0007141606A
:1018E00008BD00000010024000000140002809DB94
:1018F00000F01F02012191404009800000F1E0202A
:10190000C0F8001170470000F0B40E4B1B680C4685
:10191000C3F30223C3F10705042D00D90425191DC3
:10192000072901D2002300E0DB1E012606FA05F19B
:10193000491E214099409E40761E16403143F0BC1E
:1019400002F07ABA0CED00E0064900F007020868E0
:101950004FF6FF03184040EA0220034A1043086094
:10196000704700000CED00E00000FA052DE9F0479B
:101970000F46050061D0434E306800F00700B842C2
:1019800009D2306820F0070038433060306800F03A
:101990000700B84251D128683B4C810712D5400757
:1019A00003D5606840F4E06060602878000703D5E4
:1019B000606840F4605060606068A96820F0F000E2
:1019C000084360602878C00728D06868012810D0D4
:1019D0002168022810D0890700292EDA616821F0D9
:1019E000030101436160FFF7D1FC804641F2883971
:1019F0000DE021688903EFE78901EDE7FFF7C6FCF9
:101A0000A0EB0801494502D90320BDE8F0876068D2
:101A1000696800F00C00B0EB810FEFD1306800F086
:101A20000700B8420BD9306820F007003843306017
:101A3000306800F00700B84201D00120E5E72878BF
:101A4000400705D56068E96820F4E06008436060FD
:101A50002878000706D56068296920F4605040EABC
:101A6000C100606000F058F86168084AC1F30311D2
:101A7000515CC8400649086006480068FFF7C6FE8A
:101A80000020C2E70020024000100240426B000824
:101A900028000020200000200F2202600C4A53681A
:101AA00003F003034360536803F0F003836053685B
:101AB00003F4E063C36052684FF4E06303EAD202C8
:101AC00002610448006800F00700086070470000E9
:101AD000001002400020024004480549006849689F
:101AE000044AC1F30221515CC8407047280000201D
:101AF00000100240526B000804480549006849681C
:101B0000044AC1F3C221515CC8407047280000203C
:101B100000100240526B00080E4A51680E4801F056
:101B20000C03042B11D0082B0FD10C48C1F38343B5
:101B3000C903C05C0AD55168084AC1F34041921EEE
:101B4000515C054A5043B0FBF1F0704704494843EB
:101B5000704700000010024000127A00326B00084B
:101B600000093D002DE9F84F040070D02078C04DE9
:101B7000C00749D06868C0F38100012807D06868B1
:101B8000C0F38100022809D16868C00306D528681F
:101B9000800339D560680028E7D035E06068B0F58B
:101BA000803F0BD010B1B0F5A02F11D0286820F4E1
:101BB00080302860286820F4802002E0286840F403
:101BC00080302860606890B1FFF7E0FB06460AE0CD
:101BD000286840F480202860F0E700BFFFF7D6FBBC
:101BE000801B642873D828688003F7D50CE0FFF7C2
:101BF000CDFB064605E000BFFFF7C8FB801B64284D
:101C0000F0D828688003F7D420789A4E80074FF0E8
:101C100001094FF0000839D5686810F00C0F07D0A3
:101C20006868C0F38100022809D16868C00306D43F
:101C30002868800714D52069012808D110E02069A0
:101C4000B0B1C6F80090FFF7A1FB074605E00AE136
:101C5000FFF79CFBC01B0228C4D828688007F7D573
:101C60002868616920F0F80040EAC10028600DE0B2
:101C7000C6F80080FFF78AFB074604E0FFF786FB03
:101C8000C01B022823D828688007F7D420780007D3
:101C90002CD57948A169D9B1C0F80090FFF776FB3F
:101CA000074604E0FFF772FBC01B02280FD8686AE2
:101CB0008007F7D571484FF4FA510068B0FBF1F096
:101CC000009000BF0098411E0091FAD20EE080E023
:101CD000C0F80080FFF75AFB074604E0FFF756FB09
:101CE000C01B022875D8686A8007F7D4207840079F
:101CF00060D5E8690027C00008D4E86940F080504A
:101D0000E861E869012700F0805000905C480168B4
:101D1000C90513D40168834641F480710160FFF75F
:101D200035FB824606E000BFFFF730FBA0EB0A0060
:101D300064284ED8DBF80000C005F5D5E06801281E
:101D40000AD008B1052813D0286A20F001002862C3
:101D5000286A20F0040002E0286A40F001002862AE
:101D6000E06841F2883B98B1FFF710FB82460BE038
:101D7000286A40F004002862EEE700BFFFF706FB88
:101D8000A0EB0A0159455AD8286A8007F6D50CE01D
:101D9000FFF7FCFA824605E0FFF7F8FAA0EB0A012C
:101DA00059454CD8286A8007F6D41FB1E86920F05D
:101DB0008050E861E06988B36968C1F38101022954
:101DC00044D00228C6F8608004D0FFF7DFFA04464A
:101DD00038E034E0FFF7DAFA074604E0FFF7D6FA16
:101DE000C01B02282BD828688001F7D4206AB0F5E0
:101DF000803F05D16868A16820F40030084368601E
:101E0000D4E908010843696821F474110843686043
:101E1000C6F86090FFF7BAFA044606E025E000BF76
:101E2000FFF7B4FA001B022809D828688001F7D50B
:101E30001BE000BFFFF7AAFA001B022802D903200B
:101E4000BDE8F88F28688001F4D40EE00128F7D0AF
:101E50006868226A00F48031914204D1616A00F41A
:101E60007010884201D00120EAE70020E8E7000076
:101E7000001002400000424280044242280000203C
:101E8000007000407047704710B5040003D094F80C
:101E90003D0010B107E0012010BD002084F83C0097
:101EA000204600F01EF8022084F83D00211D206825
:101EB00001F0FAFD012084F8460084F83E0084F821
:101EC0003F0084F8400084F8410084F8420084F820
:101ED000430084F8440084F8450084F83D00002065
:101EE00010BD704790F83D10012901D001207047C6
:101EF000022180F83D100168CA6842F00102CA6000
:101F000000680B49884208D0B0F1804F05D00949DC
:101F1000884202D00849884204D1816801F0070153
:101F2000062903D0016841F00101016000207047DB
:101F3000002C01400004004000080040704770B5CC
:101F40000446006801694FF00005C943890715D4AC
:101F5000C168C943890711D4E91E016101202077B6
:101F6000206880698007204602D0FFF7E7FF04E081
:101F700000F098F8204600F096F82577206801696F
:101F8000C943490717D4C168C943490713D46FF03F
:101F900004010161022020772068806910F4407FED
:101FA000204602D0FFF7CAFF04E000F07BF820468D
:101FB00000F079F8257720680169C943090716D42C
:101FC000C168C943090712D46FF0080101610420F8
:101FD00020772068C0698007204602D0FFF7AEFF57
:101FE00004E000F05FF8204600F05DF825772068F7
:101FF0000169C943C90617D4C168C943C90613D4C6
:102000006FF010010161082020772068C06910F48A
:10201000407F204602D0FFF791FF04E000F042F835
:10202000204600F040F8257720680169C943C907B8
:1020300008D1C168C943C90704D1891E016120467E
:1020400000F032F820680169C943090609D4C16863
:10205000C943090605D46FF0800101612046FFF7EE
:1020600011FF20680169C943490609D4C168C94301
:10207000490605D46FF040010161204600F01EF8CA
:1020800020680169C94389060BD4C168C943890620
:1020900007D46FF0200101612046BDE87040FFF7D2
:1020A000F2BE70BD7047704700680349884201D195
:1020B000FFF792BB70470000000800407047704770
:1020C00070470000F8B5016804460868CA684B69A3
:1020D00010F00F0F4FF0000559D003F0010602F485
:1020E0009077374365D0C10705D0D10503D5616C22
:1020F00041F001016164410705D5D90703D0616C46
:1021000041F002016164810705D5D90703D0616CF4
:1021100041F004016164010707D502F02001314359
:1021200003D0616C41F008016164616C00293AD010
:10213000800604D5900602D5204601F01AFD2068DD
:102140004069616CC0F38010090700D460B3204679
:1021500001F0E8FC20684069400621D52068143071
:1021600050E8001F21F0400140E80012002AF5D19C
:10217000E06BA8B16D494163E06BFEF7C1FF002839
:1021800011D0E06B416B01B0BDE8F0400847830619
:102190000FD593060DD52046BDE8F84001F0E9BC07
:1021A0002046FFF78DFFF8BD2046FFF789FF6564E5
:1021B000F8BD266B2023012E7CD1C6067AD5D60623
:1021C00078D508684868009048694FF002064006D4
:1021D00040D5E16B086840680004000CE8D0A28D8F
:1021E0008242E5D9E085886920282DD020680C300E
:1021F00050E8001F21F4807140E80012002AF5D158
:102200002068143050E8001F21F0010140E800125E
:10221000002AF5D12068143050E8001F21F0400159
:1022200040E80012002AF5D184F842302563206886
:102230000C3050E8001F21F0100140E80012002A85
:10224000F5D1E06BFEF738FF6663A08DE18D401A93
:1022500081B22AE0A08DE18D401A81B2E08D002884
:10226000A6D00029A4D022680C3252E8000F20F436
:10227000907042E80007002FF5D12068143050E834
:10228000002F22F0010240E80027002FF5D184F84A
:102290004230256320680C3050E8002F22F01002F5
:1022A00040E80023002BF5D166632046FFF707FFC7
:1022B000F8BDFFE705062BD5150629D594F8410092
:1022C0002128F5D1A068B0F5805F01D12069B0B1B7
:1022D000206A411C2162216800784860E08C401E21
:1022E0000004000CE084E3D12068C16821F0800183
:1022F000C1602068C16841F04001C160D8E7206A30
:102300000088C0F308004860206A801C2062E5E76E
:102310004006CDD55006CBD5CA68204622F04002F3
:10232000CA6084F8413000F01CF9C1E7153B000891
:1023300070B5040004D094F84100002510B106E007
:10234000012070BD84F84050204600F023F824207E
:1023500084F841002068C16821F40051C160204622
:1023600001F068FC2068016921F490410161206856
:10237000416921F02A0141612068C16841F400519E
:10238000C1606564202084F8410084F842006563E0
:10239000002070BD70B586B00024009401940294B2
:1023A00003942E4E03682E49022003222D4DB34282
:1023B00026D18B6943F480438B618B6903F480439E
:1023C00004938B6943F004038B618969039201F0E4
:1023D000040104910102CDE9001069462846FEF788
:1023E000DBFE2815CDE90004694628460294FEF775
:1023F000D3FE002205212520FFF786FA252028E0BC
:10240000194EB34227D1CB6943F40033CB61CB697A
:1024100003F4003304938B6943F004038B618969EF
:10242000039201F0040104910421CDE900106946F2
:102430002846FEF7B1FE0820CDE90004694628468B
:102440000294FEF7A9FE002205212620FFF75CFA80
:102450002620FFF74BFA06B070BD0000003801409F
:1024600000100240000801400044004090F8423053
:10247000202B01D00220704721B11AB10023036341
:1024800001F034BC0120704700680B49884211D12B
:102490000A484188B1F5007F01D300214180084BF3
:1024A00089B202785A54491C4180012203490548E7
:1024B000FFF7DCBF7047000000440040B000002080
:1024C000D8380020741B00202DE9F843044690F80A
:1024D00041001F4616460D46202802D00220BDE8C6
:1024E000F8837DB176B100206064212084F841003A
:1024F000FEF74CFFA6848046E684A068B0F5805FB6
:1025000002D003E00120EAE7206910B12E46002541
:102510000EE000260CE08021204601F002FCA0B96C
:10252000AEB116F8010B21684860E08C401EE084D3
:10253000E08C43464FF0000200970028EBD14FF0AB
:102540004001204601F0EDFB30B10320C7E735F82C
:10255000020BC0F30800E6E7202084F841000020C9
:10256000BDE77047FEE701684A69D24352050FD4C0
:102570006FF480624A61002140F8301F20224273CC
:102580008173026942F00402026101730120704705
:1025900000207047F8B50446C06A1E460D4617462F
:1025A000082807D0012805D010F5803F02D0206B05
:1025B000122804D12068016841F48071016013463B
:1025C00000224FF001112046009600F0B1F840B112
:1025D00020680068C00502D54FF400702064032015
:1025E000F8BD2069B0F5804F0ED00620216800EAC2
:1025F000D51040F0F000086133463A460B492046BA
:1026000000F0DEF878B902E005F0FE0000E0E8B284
:1026100021680861054933463A46891F204600F083
:10262000CFF80028DCD00120F8BD00000800010030
:102630002DE9F843044600680D46DDE90897016876
:102640009846164641F4807101604B4600224FF0D7
:1026500001112046009700F06BF848B1206800682F
:10266000C00502D54FF4007020640320BDE8F88354
:10267000216805F0FE0008613B464A4615492046A0
:1026800000F09EF888B920684169806900903A4658
:102690004946204600F0F2F848B1206C042804D1E5
:1026A0002068016841F4007101600120DEE7F5B2A5
:1026B000B8F1010F09D02168300A08613A4649464D
:1026C000204600F0DBF80028E7D1206805610020F3
:1026D000CCE700000200010070B516460D46044626
:1026E0001EE02046FFF73FFF08B1012070BD681CC7
:1026F00016D0FEF74BFE801BA84200D885B9206893
:102700004069C04340070BD5002044F8300F20211A
:102710006173A073216941F0200121612073E4E716
:1027200020684069C0434007DBD4002070BD000032
:102730002DE9F047984617460D460446C1F3074673
:10274000DDF820902AE000BFB8F1FF3F26D0FEF769
:102750001DFEA0EB0901414502D8B8F1000F1DD1C3
:102760002068012E16D0806925EA00000004000CC4
:1027700012D00020B84211D1002044F8300F20219F
:102780006173A073216941F0200121612073012050
:10279000BDE8F0874069E7E70120EBE72068012EFC
:1027A0000AD0806925EA00000004000C06D0002051
:1027B000B842C9D00020EBE74069F3E70120F7E712
:1027C0002DE9F047984616460D4604464FF000099D
:1027D0004FF0200AC1F3074723E020684069C04357
:1027E000400515D42068016841F40071016021683A
:1027F0006FF480604861C4F8309084F83DA084F89C
:102800003E90216C41F00401216484F83C9021E069
:10281000701C06D0FEF7BAFDA0EB0800B04203D84A
:1028200016B1012F1FD021E02068012F15D080693B
:1028300025EA00000004000C18D000BF44F8309FC7
:1028400084F80DA084F80E90216941F020012161E7
:1028500084F80C900120BDE8F087406925EA00006B
:102860000004000CEAD12068406901E0206880691A
:1028700025EA00000004000CAFD1ECE770B5164665
:102880000D4604461EE02046FFF76DFE08B101200C
:1028900070BD681C16D0FEF779FD801BA84200D8D9
:1028A00085B920684069C04300060BD5002044F874
:1028B000300F20216173A073216941F02001216153
:1028C0002073E4E720684069C0430006DBD40020A1
:1028D00070BD000010B50948094C4FF4005329B1F0
:1028E00000221946FEF74DFD012004E001221946A1
:1028F000FEF747FD00202070002010BD00100140B1
:10290000C000002010B50446007B012802D12068D9
:1029100001F02EFF002020606060A060207310BDD9
:102920005FF0010200F07F030B70C00909D043F093
:102930008003521C01F8013B042AF3DD4FF0FF3005
:102940007047104670472DE9F041044600250068A5
:102950000F462E4610B10220207315E0012020738F
:10296000084601F0EDFF2060002808D0C4E90167A7
:1029700002E0206846556D1CA068A842F9D8BDE861
:10298000F081206846556D1CA068A842F9D86660A1
:102990008842F4D22660F2E72DE9FF5F9A4693461B
:1029A00000251046DDF844900E9F139CFDF793FC24
:1029B00006B2BBF1000F1FD006F111001FFA80F81C
:1029C00007B10225109868B145F00405FDF783FCB6
:1029D000C7B24846FDF77FFCC11901EB0800001D96
:1029E0001FFA80F80F9870B1012807D0022808D08C
:1029F000022004B0BDE8F09F0120FAE745F00C0585
:102A000001E045F01405129808B145F0240500983E
:102A100060B3019850B345F0C0070098FDF75BFC28
:102A200005460198FDF757FC291801EB0800001D29
:102A300085B229462046FFF786FF2068C0B12946A7
:102A4000FDF716FCD4E90030411C102261601A54D5
:102A5000D4E900010144681FFFF762FF00B20028BB
:102A600008DA2046FFF74EFF0520C2E70320C0E743
:102A70000420BEE7616823680844411C61600022AD
:102A80001A54D4E90030421C042162601954D4E97C
:102A90000050421C4D2362602B54D4E90050421C6C
:102AA000626051232B54D4E90030451C54226560E8
:102AB0001A54D4E90050431C63602A54D4E900300E
:102AC000421C62601954D4E90020411C6160175413
:102AD000D4E90030411C4FEA1A2261601A54D4E94B
:102AE0000030421C626003F800A0D4E90030411CB1
:102AF000320A61601A54D4E90020411C6160165406
:102B0000D4E90001084432465946FDF7EBFB606802
:102B100030446060780736D5B9F1000F01D10FF26B
:102B2000D8091098FDF7D7FB85B2D4E90030411CD5
:102B30002A0A61601A54D4E90020411C61601554CE
:102B4000D4E9000108442A461099FDF7CBFB6068E0
:102B5000284460604846FDF7BEFB85B2D4E90030EA
:102B6000411C2A0A61601A54D4E90020411C6160AA
:102B70001554D4E9000108442A464946FDF7B2FB42
:102B8000606828446060380618D50098FDF7A3FBFC
:102B900085B2D4E90030411C2A0A61601A54D4E994
:102BA0000020411C61601554D4E9000108442A4604
:102BB0000099FDF797FB606828446060780618D597
:102BC0000198FDF788FB85B2D4E90030411C2A0A40
:102BD00061601A54D4E90020411C61601554D4E9A5
:102BE000000108442A460199FDF77CFB60682844EF
:102BF00060600020FDE60000000000002DE9FF4FAE
:102C000081B090464FF00006119C0F9A9A465FEAF9
:102C1000000BB146314608D1012005B0BDE8F08F68
:102C2000232816D02B2814D0761C0298805D00280B
:102C3000F6D141F030070AB147F0010706EB0A056B
:102C40000E98AD1C68B1012805D0022806D00320DB
:102C5000E3E70220E1E747F0020701E047F004075D
:102C6000AD1CB8F1000F03D098F80000022807D07F
:102C7000691D2046FFF767FE206850B3691D14E008
:102C80005FF0000018F80010401C7D29FAD100F117
:102C90000409AAEB0900291A00912046C91CFFF774
:102CA00052FE2068A8B10099C91CFDF7E1FAD4E9E9
:102CB0000020411C61601754D4E9000101442846FA
:102CC000FFF72EFE002806DA2046FFF71BFE052040
:102CD000A3E70420A1E7616823680844411C320A85
:102CE00061601A54D4E90020411C61601654D4E993
:102CF0000001084432460299FDF7F4FA6068304456
:102D000060600E9959B12368411C4FEA1B22616033
:102D10001A54D4E90030421C626003F800B0B8F1E4
:102D2000000F0ED098F800000228D4E900010844F2
:102D300009D052464146FDF782FA616801EB0A006C
:102D40006060002069E74A464146FDF778FA61680D
:102D500001EB0900F4E7000030B591B01446149D72
:102D6000034600910AA2302104A801F039F801209D
:102D70000021CDE90205CDE900010A46234604A958
:102D80000A20FFF73BFF002800D0012011B030BD22
:102D9000247379732F25732F25732F7468696E67D9
:102DA0002F70726F70657274792F706F737400007A
:102DB0002DE9F0474FF00008089C1F4691468A46CF
:102DC000060045460AD10120BDE8F08759F82500E4
:102DD00020B3FDF780FA6D1C8044EDB2BD42F5D3FF
:102DE00007EB470101EB0805E91D2046AD1CFFF785
:102DF000AAFD2168A1B160688222431C63600A5465
:102E0000D4E9000101442846FFF78AFD00B20028FA
:102E100008DA2046FFF776FD0420D5E70220D3E745
:102E20000320D1E7616823680844411C320A6160CD
:102E30001A54D4E90020411C61601654002520E09A
:102E400059F82500FDF747FA0646020AD4E9003092
:102E5000411C61601A54D4E900314A1C62605E541E
:102E6000D4E90001084459F825103246FDF73AFA32
:102E7000606823683044411C61606D1C03F800A049
:102E8000EDB2BD42DCD300209EE7F0B50446002041
:102E900001235D05106012E0275C166807F07F07CC
:102EA00007FB03661660265C360601D4401CF0BDA5
:102EB000DB01AB4202D36FF00100F0BD401C884241
:102EC000EADB4FF0FF30F0BD4178022901D001204C
:102ED0007047817819B1012901D0FF207047C0786F
:102EE0007047000038B504460078FF210009421EF3
:102EF0000E2A01D3084638BD0328FCD100200090DB
:102F00006A460421601CFFF7C0FF20440099401C62
:102F1000022907D32278D20704D1028852BA921C20
:102F20008A4201D9FF2038BD04A1801CFDF7B7F902
:102F300008B10F2038BD032038BD0000246372653E
:102F40007100000010B5184A0021184801F0E4FE95
:102F5000174C154A0021A061B83A164801F0DCFE72
:102F6000114A2060703A0021134801F0D5FE0E4A44
:102F7000A0604C3A0021114801F0CEFE0A4AE06000
:102F8000943A00210E4801F0C7FE074A6060283AD3
:102F90000821052001F042FE20610348103801F0AD
:102FA0002DFD606110BD00000C6B0008093A00089F
:102FB00000000020B11000083D100008E90F0008D3
:102FC000A10F0008F0B585B00025284800950195AF
:102FD00002950395816941F010018161816901F0D9
:102FE00010010491816941F020018161816901F042
:102FF00020010491816941F004018161816901F03E
:1030000004010491816941F0080181618069184ED1
:1030100000F008004FF4005404900022214630468E
:10302000FEF7AFF9134F002202213846FEF7A9F947
:1030300000940124CDE901450225694630460395F7
:10304000FEF7AAF81120CDE9005069463846CDE9CF
:103050000245FEF7A1F8A00300900748CDE901045E
:1030600069460648FEF798F805B0F0BD001002402A
:10307000001001400008014000002110000C014038
:103080000D4810B50B4901600C49416000214FF417
:1030900080428160C0E9031241618161C1610162C6
:1030A000FEF77AF9002803D0BDE81040FDF776BF9F
:1030B00010BD000000540040D81A0020A086010076
:1030C0000E4810B50C4901604FF4E1314160002118
:1030D00081600C22C160C0E904128161C161FFF707
:1030E00027F908B1FDF75AFFBDE810400122044955
:1030F0000248FFF7BBB90000003801402C1B00203C
:10310000B00000200E4810B50C4901604FF4E131C9
:103110004160002181600C22C160C0E9041281611C
:10312000C161FFF705F908B1FDF738FFBDE81040B0
:10313000012204490248FFF799B900000044004009
:10314000741B0020B0000020FEE7FEE710B5A0B021
:10315000002480216846FDF78BF80021204600F00E
:1031600047F88021684600F095F8641CE4B2082C0A
:10317000F3D320B010BD2DE9F04117460E460446AA
:1031800000250BE03146204600F00EF8641CE4B246
:103190000F2C02D90024B61CF6B26D1C7A5D002AF1
:1031A000F0D12846BDE8F08170B51646C206150E6E
:1031B0000C46072918D80F2816D82946204600F0B3
:1031C00017F80A48082100EB0610064600F062F8DE
:1031D000641CE0B2294600F00BF806F10800BDE8D7
:1031E0007040082100F056B870BD00005A6B00080E
:1031F00070B50E4D0C462978022905D1072803D851
:10320000B030C0B200F032F8287802280CD17F2C00
:103210000AD804F00F0000F029F8102000EB141079
:10322000BDE8704000F022B870BD0000A40000208E
:103230002DE9F04105460C480C4600EB821606F1DC
:10324000200729462046FFF7D3FF1021304600F023
:1032500021F8641CE0B22946FFF7CAFF3846BDE8F2
:10326000F041102100F016B85A7300081CB5002177
:103270008DF804108DF805004FF4FA7000900448A2
:10328000022301AA78214068FEF74AF91CBD00001C
:10329000A40000200EB54FF4FA728DE80700044830
:1032A0000123402278214068FEF7D0F90EBD0000CE
:1032B000A40000202DE9F0438BB005460024FDF763
:1032C0000AF8C6B21DB1002069461C2E08D20120A2
:1032D0000BB0BDE8F0832A5D0A552855641CE4B2A2
:1032E000B442F8D308550027814688463C4621E081
:1032F00018F807002B2812D008DC202812D0232829
:1033000027D0252822D0262806D125E02F2817D01F
:103310003D2824D03F2816D02855641C07E02819E2
:1033200010A101E0281910A1FCF7ADFFE41C7F1CDF
:10333000E4B2FFB2B742DBD305F804900020C7E740
:1033400028190AA1F0E7281909A1EDE7281909A110
:10335000EAE7281908A1E7E7281908A1E4E72819EE
:1033600007A1E1E725324200253230002532460030
:10337000253346002532350025323300253236000C
:10338000253344002DE9F04FC9B04FF0000ADDE9C4
:1033900054B8DDF848911F4615460C460600CDF896
:1033A0001CA109D044B13D48854205D327B15398AB
:1033B00010B1BBF1780F03D2012049B0BDE8F08F06
:1033C000402137A8FCF754FF3846FCF784FF0090F3
:1033D0003B4647AA402137A8FDF700FA482115A827
:1033E000FCF746FFB8F1000F09D02DA08DE8510081
:1033F0002B462DA2482115A800F0F2FC09E028A1D7
:1034000003968DE812022B462DA2482115A800F044
:10341000E7FC402127A8FCF72BFF15A8FCF75BFF72
:10342000074637A8FCF757FF014627A800903B4600
:1034300015AA37A801F0E0F9402105A8CDF81CA194
:10344000FCF716FF27A8FCF746FF009027AB47AA1A
:10345000402105A8FDF75EFA05A8FFF72BFF05A898
:10346000B8F1000F0BD00EA1CDE9021033461CA21B
:103470005946CDE90045539800F0B2FC0BE008A294
:103480000295CDE90320CDE900493346224A594649
:10349000539800F0A5FC00208FE700009554415D93
:1034A000736861310000000025640A25730A707298
:1034B0006F64756374732F25730A25730000000011
:1034C00025640A25730A70726F64756374732F25FF
:1034D000732F646576696365732F25730A257300FE
:1034E00076657273696F6E3D2573267265733D70E4
:1034F000726F64756374732525324625732665746F
:103500003D2564266D6574686F643D257326736977
:10351000676E3D2573000000E876000800B595B0A1
:103520000020019002900390049005A8139010A031
:10353000009011A313A2382105A800F051FC05A9A1
:1035400018A000F03DFC01A80090012313AA00215F
:103550001420FFF72DFC002807D1029881B20198B2
:10356000FDF7E8FC01A8FFF7CDF915B000BD00009C
:103570006D717474310000006C72353135585836F5
:10358000616F0000247379732F25732F25732F74B7
:1035900068696E672F70726F70657274792F7365CA
:1035A0007400000053756273637269626520546F22
:1035B0007069633A2025730D0A00000030B5B3B07E
:1035C00000242E9406A92CA22F943094A020CDE99B
:1035D0000021CDE90204012529A33194344A35A103
:1035E00037A0FFF7CFFE06AB32A223A137A000F031
:1035F000E7FB2EA8CDE904400120CDE90004030239
:10360000029403941CA206A92AA0FFF7C5F928B1C9
:103610003AA000F0D5FB33B0284630BD2F9881B2D8
:103620002E98FDF787FCFA20FDF776FB04001DD0ED
:10363000FFF758FC022819D12046FFF745FC062861
:1036400018D2DFE800F003080A0C0E1034A000F0D6
:10365000B7FB00250AE037A006E03DA004E045A046
:1036600002E04CA000E054A000F0AAFB2EA8FFF757
:1036700049F9D0E75BA0F7E76D7174743100000081
:103680004D585A56634656584D564A7557467054CB
:1036900052584231643170424E7A5A6D52485A360D
:1036A0005A6A4530593039435247773D000000008F
:1036B00000CF9D746C72353135585836616F0000FB
:1036C000323031382D31302D333100004F6E654EA0
:1036D00045545F4465764C696E6B0D0A4E414D450D
:1036E0003A2025732C0950524F49443A2025732C17
:1036F000094B45593A25730D0A0000005741524EB7
:103700003A094D5154545F5061636B6574436F6E59
:103710006E656374204661696C65640D0A00000083
:10372000546970733A09C1ACBDD3B3C9B9A60D0AC7
:10373000000000005741524E3A09C1ACBDD3CAA7A0
:10374000B0DCA3BAD0ADD2E9B4EDCEF30D0A0000DF
:103750005741524E3A09C1ACBDD3CAA7B0DCA3BA97
:10376000B7C7B7A8B5C4636C69656E7469640D0AA0
:10377000000000005741524E3A09C1ACBDD3CAA760
:10378000B0DCA3BAB7FECEF1C6F7CAA7B0DC0D0A0B
:10379000000000005741524E3A09C1ACBDD3CAA740
:1037A000B0DCA3BAD3C3BBA7C3FBBBF2C3DCC2EB81
:1037B000B4EDCEF30D0A00005741524E3A09C1ACA8
:1037C000BDD3CAA7B0DCA3BAB7C7B7A8C1B4BDD32D
:1037D00028B1C8C8E7746F6B656EB7C7B7A8290D65
:1037E0000A0000004552523A09C1ACBDD3CAA7B085
:1037F000DCA3BACEB4D6AAB4EDCEF30D0A00000015
:1038000010B58CB0044630216846FCF731FD1EA18E
:103810002046FCF77BFD30216846FCF729FD204956
:1038200068460A781FA100F0F3FA69462046FCF7C3
:103830002AFD30216846FCF71BFD204820A10278B4
:10384000684600F0E5FA69462046FCF71CFD302189
:103850006846FCF70DFD2048007808B11FA200E083
:1038600020A222A1684600F0D3FA69462046FCF760
:103870000AFD23A12046FCF706FD2046FCF72BFDA0
:103880000CB0C0B210BD00007B226964223A223124
:103890003233222C22706172616D73223A7B0000F8
:1038A000B80000202274656D70223A7B2276616C2C
:1038B0007565223A25647D2C00000000BC000020C4
:1038C0002268756D69223A7B2276616C7565223AB1
:1038D00025647D2C00000000C00000207472756516
:1038E0000000000066616C7365000000226C656476
:1038F000223A7B2276616C7565223A25737D000041
:103900007D7D000030B5C5B00020419042904390CD
:10391000044644904FF4807101A8FCF7A9FC01A86B
:10392000FFF76EFF05000BD041A8009000232A4648
:1039300011A113A0FFF710FA70B114A000F040FA23
:1039400045B030BD015DDDE94123D1544299491CA8
:10395000641C24B2429100E001A8AC42F2DB429820
:1039600081B24198FDF7E6FA10A0429900F028FADA
:1039700041A8FEF7C7FFE3E76D71747431000000E2
:103980006C72353135585836616F00005741524ED0
:103990003A094544505F4E65774275666665722008
:1039A0004661696C65640D0A0000000053656E6431
:1039B0002025642042797465730D0A0038B50C46E1
:1039C00002460FA1684600F023FA6A46002107204C
:1039D000FFF7D1FB22460AA1684600F019FA6A46B1
:1039E00003210720FFF7C7FB0648007808B108222B
:1039F00000E0092206213620FFF71AFC38BD00003E
:103A000025326400C0000020012000F0DDFFFBE74C
:103A100010B5502080F31188BFF34F8FBFF36F8F25
:103A200002F062FE18B104494FF080500860002097
:103A300080F3118810BD000004ED00E030B58FB0B8
:103A400028216846FCF714FC14210AA8FCF710FC96
:103A500001210804CDE900100024029402250491FC
:103A6000CDE907504FF4E01009906846FEF77AF868
:103A700008B172B6FEE70F20CDE90A054FF4806069
:103A8000CDE90C4002210AA80E94FDF76FFF002833
:103A900001D072B6FEE70FB030BD70470148FEF7A7
:103AA0004EBA0000BC1B0020F0B50268164B174C44
:103AB000174D4FF08047984205D0B84203D0A0423E
:103AC00001D0A84203D122F070064A6832439842DE
:103AD00005D0B84203D0A04201D0A84203D122F4BD
:103AE0004074CA6822434C6922F08002224302607B
:103AF0008A68C2620A688262984201D109690163D8
:103B000001214161F0BD0000002C01400004004093
:103B10000008004010B5406A0021C185C184FEF74D
:103B2000CFFA10BD01680C3151E8002F22F49072D9
:103B300041E80023002BF5D10168143151E8002F32
:103B400022F0010241E80023002BF5D1016B01298D
:103B500009D101680C3151E8002F22F0100241E830
:103B60000023002BF5D1202180F8421000210163B1
:103B7000704708B590F84210222901D0022008BDF4
:103B800082684FF480539A4201D1016921B1816A60
:103B90009A421BD04AB10AE00268816A5268C2F3B5
:103BA00008020A80816A891C08E0026972B1026811
:103BB000526802F07F020A70816A491C8162C18DDD
:103BC000491E0904090CC18503D01BE00268526834
:103BD000F1E70168CA6822F02002CA600168CA6879
:103BE00022F48072CA6001684A6922F001024A61C7
:103BF000202180F8421000214163026B012A03D08A
:103C0000FEF742FC002008BD016301680C3151E859
:103C1000002F22F0100241E80023002BF5D10168AB
:103C20000A68D20602D50A6849680091818DFEF7BC
:103C300046FAE7E770B5044600680169E26821F4D6
:103C40004051114301612169A0680843616908433B
:103C50002168CA6841F20C639A430243CA60206833
:103C60004169A26921F44071114341611E492068F4
:103C7000884202D1FDF740FF01E0FDF72DFF00EB88
:103C8000C00101EB0012606864218000B2FBF0F318
:103C9000B3FBF1F36FF018067343B2FBF0F5B2FB20
:103CA000F0F605EB8305322303EB0515B5FBF1F5C3
:103CB000B6FBF1F605F0F00505EB0615B2FBF0F6E4
:103CC000B2FBF0F0B0FBF1F06FF01802504306EBDE
:103CD000800003EB0010B0FBF1F0216800F00F0052
:103CE0002844886070BD00000038014081628285F0
:103CF000C28500214164222180F84210016921B16E
:103D00000168CA6842F48072CA6001684A6942F078
:103D100001024A610068C16841F02001C1600020D1
:103D200070472DE9F041984617460E460446069D19
:103D300027E0681C25D02DB1FDF728FBA0EB08007B
:103D4000A8421ED920680C3050E8001F21F4D07121
:103D500040E80012002AF5D12068143050E8001F16
:103D600021F0010140E80012002AF5D1202084F85A
:103D7000410084F84200002084F840000320BDE8A0
:103D8000F0812068006836EA000004D00020B842C4
:103D9000CFD00020F3E70120F9E700000148FEF74B
:103DA00091B900002C1B00200148FEF78BB90000E0
:103DB000741B0020FEE74FF0FF33FEF785BB0000C9
:103DC0000FB4054B10B503A9044A029800F016F988
:103DD00010BC5DF814FB00004D470008C400002033
:103DE0000FB41CB50246002007AC00290BD0491EB9
:103DF000CDE90021054B6A462146069800F0FEF801
:103E0000009A002111701CBC5DF814FB2B470008C0
:103E10000FB4084B10B504A902AA039800F0EEF8FD
:103E2000044602A9002000F08BFC204610BC5DF87F
:103E300014FB0000414700080907090E002804DBB5
:103E400000F1E02080F80014704700F00F0000F14E
:103E5000E02080F8141D704702E008C8121F08C156
:103E6000002AFAD170477047002001E001C1121FFB
:103E7000002AFBD1704700002DE9FF5F82B00021CE
:103E8000DDE90430020DDDF840B0034318D044F6FC
:103E90001050A2F2FF3242431514119801281FD08E
:103EA000A5EB0B00401C5FEA000A4FF000064E4FE6
:103EB000DFF83891B046504615D5CAF1000413E03A
:103EC000119801244AA3012801D16FEA0B0102983D
:103ED000119AC0E90031C0E9024206B0BDE8F09F86
:103EE000CBF10000DFE704460021404A491842EBCD
:103EF0000450CDE9001012E0E00707D032463B46FF
:103F000040464946FCF7B2FA8046894632463B466F
:103F100010461946FCF7AAFA06460F466410002C14
:103F2000EAD1DDE90401DDE90023BAF1000F06DA88
:103F3000FCF79CFA42464B46FCF798FA05E0FCF782
:103F4000B3FB42464B46FCF7AFFB04460E4600224D
:103F5000284BFCF7FDFA03D84FF0FF30014607E08D
:103F60000022254B20463146FCF7D9F9FCF70BFC23
:103F7000102409E0002C0ADB0A220023FCF71EF9BA
:103F8000039B30321A55641E50EA0102F2D1641CC0
:103F9000039AC4F111031444119A012A03D0012297
:103FA00008430DD10AE0084304D000204FF0110B64
:103FB000119072E7A3EB0B056D1E0DE05B4504DD70
:103FC0004FF0000205F1010504E003DA4FF00002B2
:103FD000A5F10105002AECD002981199C0E902313F
:103FE000C0E9004579E70000000014400000F03F00
:103FF000300000000000F0430000E03F2DE9FF4FDB
:1040000095B09B468946064600250FE2252877D1C4
:1040100000242746F84A0121059400E0044316F8DD
:10402000013F203B01FA03F01042F7D130782A28F3
:1040300011D06FF02F033078A0F13002092A16D882
:10404000059A44F0020402EB820203EB42021044A0
:10405000761C0590EFE759F8042B0592002A03DA45
:10406000504244F40054059044F00204761C307829
:104070002E2816D116F8010F44F004042A280DD07A
:104080006FF02F023078A0F13003092B09D807EB2D
:10409000870302EB4303C718761CF3E759F8047B48
:1040A000761C30786C280FD006DC4C2817D0682896
:1040B0000DD06A2814D104E0742810D07A280FD1CA
:1040C0000DE044F400140AE044F4801401E044F4E8
:1040D00040147278824202D104F58014761C761C5A
:1040E000307866280BD013DC582877D009DC0028FC
:1040F00075D04528F6D04628F4D047281AD19DE13E
:1041000018E0632835D0642879D0652812D195E16C
:10411000702873D008DC6728F1D069286FD06E282A
:104120000DD06F2806D1B5E073282CD0752875D036
:10413000782874D05A46179990476D1C75E1C4F3DE
:104140000250022809D003280DD0D9F80010042805
:104150000DD00D6009F1040967E1D9F80010EA17E4
:10416000C1E90052F6E7D9F800100D80F2E70D70B2
:10417000F0E719F8041B8DF8001000208DF80100FD
:10418000EA46012003E059F804AB4FF0FF30610725
:104190004FF0000102D40DE008F101018846B94258
:1041A0000FDA8045F8DB1AF808100029F4D108E08E
:1041B00008F1010188468142FADB1AF8081000294B
:1041C000F6D105985B46A0EB080721463846179ABA
:1041D00000F094FA284400EB080507E04DE029E1DF
:1041E0000DE01AF8010B5A4617999047B8F10108EB
:1041F000F7D25B4621463846179A13E142E00A227D
:104200000092C4F302524FF0000A022A08D059F873
:1042100004CB032A4FEAEC710AD00DE029E02AE032
:1042200009F1070121F00702F2E802C1914609E015
:104230000FFA8CFC4FEAEC71042A03D14FFA8CFC84
:104240004FEAEC71002907DA0A460021DCF1000C84
:1042500061EB02012D2202E0220504D52B228DF80C
:104260000420012203E0E20701D02022F7E7904674
:1042700059E00A2102E010220DE010214FF0000A5F
:1042800000910BE010224FF0000A44F004040827CC
:10429000009203E008224FF0000A0092C4F3025299
:1042A000022A05D059F804CB0021032A08D009E0DE
:1042B00009F1070121F00702F2E802C1914605E089
:1042C0001FFA8CFC042A01D10CF0FF0C4FF00008FF
:1042D000220728D5702806D0009B83F0100353EAEC
:1042E0000A0305D00EE040228DF80420012208E0E8
:1042F0005CEA010206D030228DF804208DF805001A
:1043000002229046009B83F0080353EA0A030AD175
:104310005CEA010201D1620705D530228DF8042044
:104320004FF001087F1E582804D034A003900EA837
:1043300002900DE036A0F9E753466046009AFBF77D
:104340003DFF84460398825C0298401E02900270F2
:104350005CEA0100F0D1029806A9081A00F1200ACF
:10436000600702D524F4803400E00127574502DDC0
:10437000A7EB0A0000E0002000EB0A01009005987E
:104380004144401A0590E00306D45B462146179A43
:10439000059800F0B3F90544002706E001A85A4645
:1043A000C05D179990476D1C7F1C4745F6DBE00305
:1043B0000CD55B462146179A059800F09FF90544F5
:1043C00004E030205A46179990476D1C0099481E0A
:1043D00000900029F5DC08E0029802995A4600781E
:1043E000491C0291179990476D1CBAF10001AAF17E
:1043F000010AF1DC65E100000928010030313233A7
:104400003435363738396162636465660000000010
:1044100030313233343536373839414243444546FA
:104420000000000000F058F90544761C30780028A0
:104430007FF4ECAD19B02846BDE8F08F620700D4D8
:10444000062709F1070222F0070CFCE80223E146E7
:1044500003F000485FEA080C02D00FF2702C0DE068
:104460005FEA045C02D50FF2682C07E05FEAC47CC7
:1044700002D00FF2602C01E0AFF2700C4FF0FF3869
:1044800023F00043CDF850C065280CD006DC452849
:1044900009D046281DD047283DD13DE0662818D0D8
:1044A00067287ED138E00021112F01DB112000E0C8
:1044B000781CCDE9000106A90EA8FFF7DDFCDDE9B7
:1044C0000F010E9A03910021009207F1010A049155
:1044D0004DE04FF000400097CDE9011006A90EA86D
:1044E000FFF7CAFCDDE90F0203920E9B119900222F
:1044F000DDF80CA00093049211B9791C00EB010ABD
:10450000B7EB0A0004D4C0F1FF3007F1010A0490B0
:10451000AAEB0700019044E0012F00DA01270021F7
:10452000112F01DD112000E03846CDE9000106A978
:104530000EA8FFF7A1FCDDE90F010E9A03910021FF
:1045400004910092BA4621070CD40399514500DA30
:104550008A46BAF1010F05DD009AAAF10101515C0A
:10456000302908D0B84202DA10F1040F06DA01212E
:10457000CDE9011015E0AAF10101E9E7002805DC09
:10458000049901440491AAEB000102E0411C514549
:1045900000DD8A460499401A401C01904FF000400B
:1045A0000290200704D40198504501DBCDF8048027
:1045B00000208DF84F0002980DF14F07B0F1004F29
:1045C00025D02B200E9002984FF0020800280CDA1C
:1045D000404202902D200E9007E00A210298FBF73E
:1045E000CFFF3031029007F8011DB8F10001A8F1AA
:1045F0000108F2DC02980028EFD1791E0E980870AD
:10460000307800F0200040F0450007F8020D12A8B5
:10461000C01B00F107081498007800B1012000EBDE
:104620000A01019801EBE07105984144401A401ECF
:104630000590E00306D45B462146179A059800F0E2
:104640005DF805441498007818B15A4617999047B8
:104650006D1CE00324D55B462146179A059800F0AF
:104660004DF805441CE00498002807DBDDE9030150
:10467000884203DD0098405C179901E017993020CB
:104680005A469047049805F10105401C0490019892
:10469000401E019004D12E205A46179990476D1C58
:1046A000BAF10001AAF1010ADDDC05E017F8010BFF
:1046B0005A46179990476D1CB8F10001A8F10108FE
:1046C000F4DC5B462146179A0598ABE62D00000006
:1046D0002B000000200000002DE9F04104460025D9
:1046E0001E461746880404D405E039462020B0470A
:1046F0006D1C641EF9D52846BDE8F0812DE9F04116
:10470000044600251E469046C80301D5302700E028
:104710002027880404D505E041463846B0476D1C83
:10472000641EF9D52846BDE8F0814A68002A06D003
:104730000A68531C0B6010704868401E4860704740
:104740000A68531C0B6010707047000013B50748CF
:104750004FF0FF342346012269460068FDF7B4FE9E
:1047600008B120461CBD00981CBD0000AC00002014
:1047700010B5002821D0114B0022001F196803E05A
:10478000814203D80A4649680029F9D152B1136819
:10479000841A9C4204D1006818441060104602E05C
:1047A000506000E0186039B102680B1A934203D1DF
:1047B0000B681A4402604968416010BDC8000020BF
:1047C00070B5064601EA0204142803DA8B4384EA32
:1047D000030070BD81EA02055D40282E01DA2846FB
:1047E00070BD3C2E05DA194061401A4082EA010092
:1047F00070BD5028F3DB70BD2DE9F047ADF5697D44
:104800001F460B46402592460021F19E4FF0360987
:104810004FF05C080A46A1AC6254491C4029FBDBFE
:10482000AB4213D00ADD3246194600F0FFFE0020ED
:10483000315C2154401C1428FADB0DE0002102E019
:10484000425C6254491C9942FADB05E00021425C5B
:104850006254491CA942FADB0020C6A9225C82EA04
:1048600009020A54401C4028F8DB00206A460B5C11
:104870001354401C4028FADB002005E01AF8001011
:104880001318401C83F84010B842F7DB7919324600
:10489000684600F0CBFE0020D6A9225C82EA08021E
:1048A0000A54401C4028F8DB0020B1AA0B5C1354CA
:1048B000401C4028FADB00201318315C401C83F8B0
:1048C00040101428F8DB324605F11401B1A800F0BD
:1048D000ADFE0DF5697DBDE8F087000001461428A6
:1048E00001DA07487047282901DA064870473C2951
:1048F00001DA054870475028FCDA04487047000088
:104900009979825AA1EBD96EDCBC1B8FD6C162CAE1
:10491000FCF76AFFFFF792F8FEF754FBFEF7B0FBD7
:10492000FEF7CEFBFEF7EEFB00210120FDF7D2FFE4
:1049300000F0FAF8FEF706FB00F012F9FEE70000BF
:10494000F0B50B30154D20F007010024144A0FE09C
:1049500003688B420BD38B4205D95E1A4318476814
:10496000C3E9006700E04368136002C004E0021D71
:1049700010680028ECD12046002802D1286808B130
:104980000020F0BD064A07481060074A121A22F0BC
:104990000702C0E9002401202860D7E7CC000020EE
:1049A000C8000020DC3A0020D83E002070B5054643
:1049B00000244FF47A7603E0304600F029FF641CAF
:1049C000AC42F9DB70BD000010B5EFF3058149B9C9
:1049D000EFF3108131B908490968022905D1EFF3D5
:1049E000118111B16FF0050403E0002408B101F05A
:1049F00069F8204610BD00007C00002010B54FF083
:104A00000001EFF30582BAB9EFF31082A2B90B4AA5
:104A10001268022A02D1EFF311826AB948B1D0E9D3
:104A200002202AB1202807D3104601F0E7F902E05E
:104A300010B901F0D5F90146084610BD7C000020F0
:104A400038B50C4610B1210E002902D06FF00300DA
:104A500038BDEFF3058149B9EFF3108131B9114940
:104A60000968022919D1EFF31181B1B10021009138
:104A70006A46214601F01EFA10B16FF0020038BDFF
:104A8000009920460029FAD0074A4FF08051116062
:104A9000BFF34F8FBFF36F8F38BD214601F0C4F9CC
:104AA00038BD00007C00002004ED00E0F8B51D4694
:104AB00016460C4610B1210E002902D06FF00300FB
:104AC000F8BDEFF3058149B9EFF3108131B915490C
:104AD0000968022905D1EFF3118111B16FF00500CA
:104AE000F8BDF10701D0012300E00023B10701D593
:104AF000002200E001222146009501F0E3F9F307CE
:104B00006FF001016FF0020206D0844206D1F8BDB9
:104B10000846F8BD1046F8BD0442FCD1002DF9D07E
:104B2000F6E700007C000020EFF3058058B9EFF3B2
:104B3000108040B909490868022801D030B109E065
:104B4000EFF3118030B16FF005007047012008606D
:104B5000002070474FF0FF30704700007C000020BD
:104B600010B5EFF3058060B9EFF3108048B90B4939
:104B70000868022802D0012806D00BE0EFF311806C
:104B800040B16FF0050010BD0220086001F0AAF8E6
:104B9000002010BD4FF0FF3010BD00007C00002051
:104BA000F8B51D466FF003026FF002064FF00004E7
:104BB000EFF305834BB9EFF3108333B9154B1B6843
:104BC000022B17D1EFF31183A3B1F0B1E9B1E5B92D
:104BD000002200926A4601F093FC012817D1009848
:104BE000B0B10D494FF080500860BFF34F8FBFF355
:104BF0006F8F0DE048B141B12A4601F0E5FB012875
:104C000006D025B16FF0010402E0144600E03446FE
:104C10002046F8BD7C00002004ED00E0F8B5144605
:104C20004FF00005EFF305826ABBEFF3108252BB31
:104C3000164A1268022A02D1EFF311821ABB10B38E
:104C400009B3ACB1D4E902326BB1502A1BD322694B
:104C5000CAB1676900FB01F6B74214D3002500957D
:104C600001F02CFA07E072B9226962B9626952B99F
:104C7000002201F0FFF9050005D00CB1216800E029
:104C8000002100F0E9FE2846F8BD00007C0000206D
:104C9000F8B51D466FF003026FF002064FF00004F6
:104CA000EFF305834BB9EFF3108333B9164B1B6851
:104CB000022B18D1EFF31183ABB100B3F9B1F5B901
:104CC0000022134600926A4601F020FB012818D109
:104CD0000098B8B10D494FF080500860BFF34F8F76
:104CE000BFF36F8F0EE050B149B100232A4601F0A7
:104CF0005DFA012806D025B16FF0010402E01446E8
:104D000000E034462046F8BD7C00002004ED00E0C1
:104D1000002000F0FDFEFEE7F0B585B04FEA01038C
:104D20004FF00004EFF305810394A1BBEFF3108172
:104D300089BB21490968022902D1EFF3118151BBD6
:104D400048B3802618218DF8104004AD42B317688F
:104D500007B13D4697691FB139467F1E382F02D2F1
:104D60001779FF0702D0002005B0F0BD576907B1E1
:104D7000BE08D2F808C0BCF1000F0DD0D4685C2C7E
:104D800018D312693AB137B18DE806103246294678
:104D900001F06BFC03900DE0D7685FB912694AB966
:104DA00003AACDE90012B2B2294601F031FC012874
:104DB00000D003940398D7E77C0000202DE9F04150
:104DC000134C0F46054666692068001D00F03CFD47
:104DD000681C07D137B12168BDE8F0410D48091DB5
:104DE00000F090BD20683544B5424560216805D289
:104DF000A068BDE8F041091D00F06CBD6068091DA8
:104E000000F068FD206B854200D22563BDE8F0818B
:104E10002C000020F42000202DE9F041054600F090
:104E20007DFD2D4C2069401C206120682B4F10B166
:104E3000E06930B32BE025602069012827D10026E6
:104E400006EB860007EB800000F036FD761C382E5E
:104E5000F6D3234800F030FD2148143000F02CFD3B
:104E60001F48283000F028FD1D483C3000F024FD8C
:104E70001B48503000F020FD194860601430A060DD
:104E800005E02068E96AC06A884200D82560E06AC7
:104E9000401CE0626864E86AA169884200D9A061A8
:104EA00000EB800007EB8000291D00F02BFD00F0D7
:104EB00055FDE06900280CD02068E96AC06A884284
:104EC00007D208494FF080500860BFF34F8FBFF3FF
:104ED0006F8FBDE8F08100002C000020441C0020F2
:104EE000A420002004ED00E038B500F017FD104CC0
:104EF000A068C8B90F4800F0DFFC0E48143000F07D
:104F0000DBFC0C482060143060600A4B0020283322
:104F1000009003F1500210210A2001F0CFF8A060A8
:104F200010B105A100F098FDBDE8384000F016BDB5
:104F30006800002008210020546D7251000000001C
:104F400030B4026C0B46002A0BD0C1681144C1601A
:104F50004468A14201D30168C16030BC1846FBF728
:104F60006EB930BC70472DE9F041856B1746044699
:104F70000026026C82B1C7B1E068FBF760F9E16816
:104F8000206C091AE1602268914202D26168081A15
:104F9000E060022F16D017E02068A8B9606801F021
:104FA00007FC0646002060600EE0A068FBF747F9AA
:104FB000216CA0680844A0606168884204D320681E
:104FC000A06001E005B16D1E6D1CA5633046BDE813
:104FD000F08110B5044690F8590058B101280CD062
:104FE00002280FD0502080F31188BFF34F8FBFF3FA
:104FF0006F8FFEE7206B00F0C5FC2046BDE8104037
:1050000000F0C0BC10BD000010484FF480514207B2
:1050100006D0C01D0D4920F00700411AC1F580518E
:105020000B4A00230144C2E900030839103A21F079
:10503000070111604B600B600B1AC0E9001393600D
:105040004FF000405360D06070470000D828002027
:1050500090000020144E154CA6F29C474FF080584B
:10506000DFF84C9012E000BF00F058FCF068C56813
:10507000281D00F0E9FB2069401E2061E068401E09
:10508000E06000F06BFC2846FFF7A3FFE068002813
:10509000EAD138680128F9D9C9F80080BFF34F8FE9
:1050A000BFF36F8FF2E70000E02000202C0000200B
:1050B00004ED00E070B51D46049C51B1C4F8002019
:1050C000C4E90F010121204601F02CF884F84C506E
:1050D00070BD2460F4E72DE9F0470E46DDE9098450
:1050E0001746824691009946089DA522206BFBF742
:1050F000B8F86FF00301206B01EB8701084420F042
:105100000707780707D0502080F31188BFF34F8F2F
:10511000BFF36F8FFEE72218315C82F83410315CE8
:1051200011B1401C1028F6D3002684F84360382DB6
:1051300000D33725E562C4E91356201D00F0C7FBF4
:1051400004F1180000F0C3FB2461C5F1380064626B
:10515000A061666584F858604A465146384600F0BA
:1051600045FA2060B8F1000F01D0C8F80040BDE852
:10517000F087000030B5114900E011460A6882420C
:10518000FBD34B685C18844203D1406818444860E4
:10519000084643681C18944209D1084C103C246806
:1051A000A24209D052681A4442600A68126802603A
:1051B000814200D0086030BD0460F9E79000002013
:1051C00070B5002441600B4D0061914206D8D11AA0
:1051D0008269914206D2011D686807E09A4203D2B3
:1051E000994201D3012403E0011D286800F072FBFD
:1051F000204670BD6800002010B5044600F08EFB0C
:10520000A06B28B15FF0000400F0A8FB204610BDA1
:105210000124F9E730B589B0304D55E004980028F5
:1052200006DADDE90601059A9047049800284BDB71
:10523000069C606910B1201D00F006FB02A800F07A
:10524000B9F8024604980A283ED2DFE800F00505C6
:10525000053D263705053D260598A169034601440D
:105260002046FFF7ADFF00B3616A20468847E0693A
:10527000012829D1002000900598A1690023421837
:105280001946204601F09EFB78B9502080F3118822
:10529000BFF34F8FBFF36F8FFEE70598A06128B172
:1052A000811813462046FFF78BFF0DE0502080F356
:1052B0001188BFF34F8FBFF36F8FFEE794F82C0078
:1052C00010B9204600F05EFB002204A9A86801F096
:1052D0007BF80028A2D109B030BD00006800002092
:1052E0002DE9FC410F46054600F040FD01A800F005
:1052F00061F80446019818B101F0D2FABDE8FC81CA
:10530000224EAFB170680068A8B30027291B3A4647
:10531000B06800F0B5FB01F0C3FA0028EED11C49DB
:105320004FF080500860BFF34F8FBFF36F8FE5E7FA
:10533000A542EBD801F0B4FA30682746C068C468CB
:10534000201D00F081FAE069012810D1A0692B46E8
:1053500041193A462046FFF733FF40B1002003468B
:10536000014600902A46204601F02CFB20B1616ADC
:1053700020468847C2E707E0502080F31188BFF33A
:105380004F8FBFF36F8FFEE70127BFE76800002054
:1053900004ED00E006484168096829B14168C96820
:1053A000C9684968016370474FF0FF31FAE70000B0
:1053B0002C00002070B5054601F090F9064E044619
:1053C0003069844203D200F009F8012000E0002097
:1053D00028602046346170BD68000020F8B5194D82
:1053E0001FE0C068C4680668201D00F02DFA616ADD
:1053F00020468847E069012813D1A0693044B042B3
:1054000006D924616060211D286800F063FA08E075
:1054100000200346014600903246204601F0D2FAB1
:1054200038B1286801680029DBD16968C5E9001036
:10543000F8BD502080F31188BFF34F8FBFF36F8FFB
:10544000FEE700006800002008484068401C4FF05C
:10545000500080F3118804D0BFF34F8FBFF36F8FDC
:10546000FEE7BFF34F8FBFF36F8FFEE7980000207A
:105470000346002012B1994302D070470B42FCD082
:1054800001207047074C2068016841B1C0680021C5
:10549000D0F80000FFF724FFFFF7BCFEF3E701217F
:1054A0000020F7E7680000202DE9F041044600F0F5
:1054B00035FA94F9455004F1240609E0606A48B1D0
:1054C000304601F0B5F908B100F072FB6D1E6DB207
:1054D000002DF3DC4FF0FF3684F8456000F03EFA13
:1054E00000F01CFA94F9445004F1100709E0206917
:1054F00048B1384601F09CF908B100F059FB6D1E27
:105500006DB2002DF3DC84F84460BDE8F04100F09A
:1055100025BA00002DE9F0410546002700F026FCE1
:10552000314E306808B9FFF76FFDF06805424BD186
:10553000C5B3083568070ED005F00700C0F10800B4
:105540000544680707D0502080F31188BFF34F8FC0
:10555000BFF36F8FFEE72DB37068854234D82248C1
:10556000103001460C6801E020460C466168A942F3
:1055700002D221680029F7D131688C4224D0076813
:105580002168016060680837411B10290FD9601934
:10559000420708D0502080F31188BFF34F8FBFF32C
:1055A0006F8FFEE710E041606560FFF7E3FD616823
:1055B0007068401A7060B268904200D2B060F068C3
:1055C00001430020C4E9000101F06AF9780707D01F
:1055D000502080F31188BFF34F8FBFF36F8FFEE72A
:1055E0003846BDE8F08100008000002010B5031FA0
:1055F0004FF080741C601B1F21F001011960191FFE
:10560000024B0B60143940380A6010BD4954000841
:1056100030B5C0F120040122A2400346521E01EA27
:10562000020098409143E140084330BD2DE9F04F1E
:10563000064601F10900C31700EB93634FEAA31874
:10564000144623F03F03CA00C01ADEB0002801DD73
:1056500008F101080846002501E03554401CB0EB74
:10566000881FFADB8020705406EB8810110A00F8BE
:10567000012C00F8021C110C00F8031C110E00F89C
:10568000041C60485590604856905E48C04357904F
:105690005D48C04358905D485990002075E0002552
:1056A0006F464FEA801901E0102D13D209EB8500F7
:1056B000315C0A06811947F82520487802EB004042
:1056C00047F825008A7800EB022047F82500C978C2
:1056D000084411E0502D11D207EB850050F80C1C46
:1056E00050F8202C514050F8382C50F8400C4240D3
:1056F00051400120FFF78CFF47F825006D1C502D0D
:10570000D2D356985290DDF854A1DDF85CB1DDF8A3
:10571000609159980025539051460520FFF778FF76
:1057200007464B465A4628465299FFF749F853997F
:10573000384442182846FFF7D1F85DF82510104488
:105740000F18CDF84C91D9461E205299FFF760FFF3
:10575000CDF848A16D1C8346BA46502DDCD355992F
:1057600001EB0A0055905699529808445799569063
:1057700001EB0B005899579001EB0900589059998B
:105780005398084459905498401C5490404586DBE7
:105790005598E0705598000AA0705598000C6070FC
:1057A0005598000E20705698E0715698000AA07126
:1057B0005698000C60715698000E20715798E07250
:1057C0005798000AA0725798000C60725798000E04
:1057D00020725898E0735898000AA0735898000CEB
:1057E00060735898000E20735998E0745998000A15
:1057F000A0745998000C60745998000E20745EB023
:10580000BDE8F08F0123456789ABCDEFF0E1D2C34E
:1058100030B50C4A00211368DC6A4FF47A72604399
:10582000B0FBF2F55A6A586A9042FCD002D9A0EB5C
:10583000020202E0A4EB0202024411440246A94221
:10584000F1D330BDBC1B0020D0E9013201699A6060
:10585000D0E901235A604A68824201D182684A60D5
:10586000002202610868401E086008687047000056
:10587000044908680A688069D26A0968C2F1380276
:105880008A6170472C000020034B036003F15C0029
:10589000086080201060704720220020044B0360C5
:1058A00003F15C0008604FF48070106070470000E6
:1058B0007C24002000F0B8BA00F108014FF0FF325C
:1058C000C0E90112C160016100210160704700213F
:1058D0000161704730B50B685A1C02D000F1080214
:1058E00002E0026904E02246546825689D42FAD924
:1058F00053684B6099608A60516008610168491C77
:10590000016030BD42684A6093688B60936859605B
:10591000916008610168491C01607047502080F364
:105920001188BFF34F8FBFF36F8F0A494868401C3F
:10593000486001280CD10848006810F0FF0F07D01C
:10594000502080F31188BFF34F8FBFF36F8FFEE7B6
:10595000704700009800002004ED00E00849486806
:1059600028B1401E486001D180F311887047502053
:1059700080F31188BFF34F8FBFF36F8FFEE70000F6
:105980009800002070B5002827D0144DA0F108041D
:105990006168E868014207D1502080F31188BFF3A5
:1059A0004F8FBFF36F8FFEE722683AB1502080F32C
:1059B0001188BFF34F8FBFF36F8FFEE781436160A4
:1059C00000F0D4F960686968084468602046FFF711
:1059D000D1FBBDE8704000F063BF70BD80000020C7
:1059E0004FF0E02000210161816105494FF47A7296
:1059F0000968B1FBF2F1491E41610721016170475D
:105A00002800002010B5FAF7C3FB114910280ED367
:105A100000F1E02090F8F0030A78904207D250207D
:105A200080F31188BFF34F8FBFF36F8FFEE70948F4
:105A30000068896800F4E060884207D9502080F34C
:105A40001188BFF34F8FBFF36F8FFEE710BD0000CB
:105A5000980000200CED00E010B5084B002200BFBC
:105A600053F832401CB1521C082AF9D310BD43F838
:105A7000321003EBC201486010BD0000041C00207E
:105A800070B515460E460446FFF748FF94F94410DA
:105A90000020491C01D184F8440094F94510491CA8
:105AA00001D184F84500FFF759FFA06B28B92A46B9
:105AB000314604F1240000F099F82046BDE870401A
:105AC000FFF7F2BC10B5020014D00F48806B38B15C
:105AD000502080F31188BFF34F8FBFF36F8FFEE725
